:0400000080316728BC
:100008007E14803120007F08F100F401F5018B1384
:100018000B1C61282700191C612819100B08F20114
:10002800F3017308803AF00080307002031D1E2827
:100038000530720203183E2820000E080139F0002E
:100048007008F4070E0C0139F0007008F5078530C8
:10005800F000F00B2D280130F2070030F33D730853
:10006800803AF00080307002031D3C28053072028F
:10007800031C202803307402031C50280330750227
:100088000318502820000C11C730F000F00B4A2844
:10009800003220000C14612803307402031C61280C
:1000A80003307502031C612820000C10C730F000D3
:1000B800F00B5C28003220000C158B17710820000B
:1000C800FF007E10090080316928F6017E102000AB
:1000D8008031C92820002108803AA20080302202FD
:1000E800031D782801302002031CAA2820002108BB
:1000F800803AA20080302202031D842801302002A9
:10010800031C080020000C110C140330A400083054
:10011800A3007830A200A20B8F28A30B8F28A40B72
:100128008F2820000C100C150330A4000830A30001
:100138007830A200A20B9E28A30B9E28A40B9E2811
:10014800FF302000A007FF30A13D7B2820000C11C4
:100158000C140330A4000830A3007830A200A20BCE
:10016800B328A30BB328A40BB32820000C100C153C
:100178000330A4000830A3007830A200A20BC228E4
:10018800A30BC228A40BC228AA28813104218031DC
:1001980001302000AB000030AC000030A800003077
:1001A800A9000030AA002B082C04031DE228003007
:1001B800A000A10080316E20803102291F3020006C
:1001C800A7007130A6003B30A500A50BE928A60BB7
:1001D800E928A70BE928000020008C141F30A7008D
:1001E8007130A6003B30A500A50BF828A60BF8280F
:1001F800A70BF828000020008C10E228803167281F
:1002080072302100990023008C018E0121008C019D
:1002180003308E0020008C018E010330A0000030D6
:10022800A10080316E2020000C11013027009700BA
:100238008B012100910192018B17270099018B15E1
:040248000B17080088
:020000040001F9
:04000E0084CFFBDAC6
:00000001FF
